{
  "contractName": "Lazy8YachtClub",
  "abi": [
    {
      "inputs": [],
      "stateMutability": "nonpayable",
      "type": "constructor"
    },
    {
      "anonymous": false,
      "inputs": [
        {
          "indexed": true,
          "internalType": "address",
          "name": "owner",
          "type": "address"
        },
        {
          "indexed": true,
          "internalType": "address",
          "name": "approved",
          "type": "address"
        },
        {
          "indexed": true,
          "internalType": "uint256",
          "name": "tokenId",
          "type": "uint256"
        }
      ],
      "name": "Approval",
      "type": "event"
    },
    {
      "anonymous": false,
      "inputs": [
        {
          "indexed": true,
          "internalType": "address",
          "name": "owner",
          "type": "address"
        },
        {
          "indexed": true,
          "internalType": "address",
          "name": "operator",
          "type": "address"
        },
        {
          "indexed": false,
          "internalType": "bool",
          "name": "approved",
          "type": "bool"
        }
      ],
      "name": "ApprovalForAll",
      "type": "event"
    },
    {
      "anonymous": false,
      "inputs": [
        {
          "indexed": true,
          "internalType": "address",
          "name": "previousOwner",
          "type": "address"
        },
        {
          "indexed": true,
          "internalType": "address",
          "name": "newOwner",
          "type": "address"
        }
      ],
      "name": "OwnershipTransferred",
      "type": "event"
    },
    {
      "anonymous": false,
      "inputs": [
        {
          "indexed": true,
          "internalType": "address",
          "name": "from",
          "type": "address"
        },
        {
          "indexed": true,
          "internalType": "address",
          "name": "to",
          "type": "address"
        },
        {
          "indexed": true,
          "internalType": "uint256",
          "name": "tokenId",
          "type": "uint256"
        }
      ],
      "name": "Transfer",
      "type": "event"
    },
    {
      "inputs": [],
      "name": "_prefixURI",
      "outputs": [
        {
          "internalType": "string",
          "name": "",
          "type": "string"
        }
      ],
      "stateMutability": "view",
      "type": "function",
      "constant": true
    },
    {
      "inputs": [],
      "name": "_premintPrice",
      "outputs": [
        {
          "internalType": "uint256",
          "name": "",
          "type": "uint256"
        }
      ],
      "stateMutability": "view",
      "type": "function",
      "constant": true
    },
    {
      "inputs": [],
      "name": "_price",
      "outputs": [
        {
          "internalType": "uint256",
          "name": "",
          "type": "uint256"
        }
      ],
      "stateMutability": "view",
      "type": "function",
      "constant": true
    },
    {
      "inputs": [
        {
          "internalType": "address",
          "name": "to",
          "type": "address"
        },
        {
          "internalType": "uint256",
          "name": "tokenId",
          "type": "uint256"
        }
      ],
      "name": "approve",
      "outputs": [],
      "stateMutability": "nonpayable",
      "type": "function"
    },
    {
      "inputs": [
        {
          "internalType": "address",
          "name": "owner",
          "type": "address"
        }
      ],
      "name": "balanceOf",
      "outputs": [
        {
          "internalType": "uint256",
          "name": "",
          "type": "uint256"
        }
      ],
      "stateMutability": "view",
      "type": "function",
      "constant": true
    },
    {
      "inputs": [
        {
          "internalType": "uint256",
          "name": "tokenId",
          "type": "uint256"
        }
      ],
      "name": "getApproved",
      "outputs": [
        {
          "internalType": "address",
          "name": "",
          "type": "address"
        }
      ],
      "stateMutability": "view",
      "type": "function",
      "constant": true
    },
    {
      "inputs": [
        {
          "internalType": "address",
          "name": "owner",
          "type": "address"
        },
        {
          "internalType": "address",
          "name": "operator",
          "type": "address"
        }
      ],
      "name": "isApprovedForAll",
      "outputs": [
        {
          "internalType": "bool",
          "name": "",
          "type": "bool"
        }
      ],
      "stateMutability": "view",
      "type": "function",
      "constant": true
    },
    {
      "inputs": [],
      "name": "name",
      "outputs": [
        {
          "internalType": "string",
          "name": "",
          "type": "string"
        }
      ],
      "stateMutability": "view",
      "type": "function",
      "constant": true
    },
    {
      "inputs": [],
      "name": "owner",
      "outputs": [
        {
          "internalType": "address",
          "name": "",
          "type": "address"
        }
      ],
      "stateMutability": "view",
      "type": "function",
      "constant": true
    },
    {
      "inputs": [
        {
          "internalType": "uint256",
          "name": "tokenId",
          "type": "uint256"
        }
      ],
      "name": "ownerOf",
      "outputs": [
        {
          "internalType": "address",
          "name": "",
          "type": "address"
        }
      ],
      "stateMutability": "view",
      "type": "function",
      "constant": true
    },
    {
      "inputs": [],
      "name": "renounceOwnership",
      "outputs": [],
      "stateMutability": "nonpayable",
      "type": "function"
    },
    {
      "inputs": [
        {
          "internalType": "address",
          "name": "from",
          "type": "address"
        },
        {
          "internalType": "address",
          "name": "to",
          "type": "address"
        },
        {
          "internalType": "uint256",
          "name": "tokenId",
          "type": "uint256"
        }
      ],
      "name": "safeTransferFrom",
      "outputs": [],
      "stateMutability": "nonpayable",
      "type": "function"
    },
    {
      "inputs": [
        {
          "internalType": "address",
          "name": "from",
          "type": "address"
        },
        {
          "internalType": "address",
          "name": "to",
          "type": "address"
        },
        {
          "internalType": "uint256",
          "name": "tokenId",
          "type": "uint256"
        },
        {
          "internalType": "bytes",
          "name": "_data",
          "type": "bytes"
        }
      ],
      "name": "safeTransferFrom",
      "outputs": [],
      "stateMutability": "nonpayable",
      "type": "function"
    },
    {
      "inputs": [
        {
          "internalType": "address",
          "name": "operator",
          "type": "address"
        },
        {
          "internalType": "bool",
          "name": "approved",
          "type": "bool"
        }
      ],
      "name": "setApprovalForAll",
      "outputs": [],
      "stateMutability": "nonpayable",
      "type": "function"
    },
    {
      "inputs": [
        {
          "internalType": "bytes4",
          "name": "interfaceId",
          "type": "bytes4"
        }
      ],
      "name": "supportsInterface",
      "outputs": [
        {
          "internalType": "bool",
          "name": "",
          "type": "bool"
        }
      ],
      "stateMutability": "view",
      "type": "function",
      "constant": true
    },
    {
      "inputs": [],
      "name": "symbol",
      "outputs": [
        {
          "internalType": "string",
          "name": "",
          "type": "string"
        }
      ],
      "stateMutability": "view",
      "type": "function",
      "constant": true
    },
    {
      "inputs": [
        {
          "internalType": "address",
          "name": "from",
          "type": "address"
        },
        {
          "internalType": "address",
          "name": "to",
          "type": "address"
        },
        {
          "internalType": "uint256",
          "name": "tokenId",
          "type": "uint256"
        }
      ],
      "name": "transferFrom",
      "outputs": [],
      "stateMutability": "nonpayable",
      "type": "function"
    },
    {
      "inputs": [
        {
          "internalType": "address",
          "name": "newOwner",
          "type": "address"
        }
      ],
      "name": "transferOwnership",
      "outputs": [],
      "stateMutability": "nonpayable",
      "type": "function"
    },
    {
      "inputs": [
        {
          "internalType": "string",
          "name": "_uri",
          "type": "string"
        }
      ],
      "name": "setBaseURI",
      "outputs": [],
      "stateMutability": "nonpayable",
      "type": "function"
    },
    {
      "inputs": [],
      "name": "totalSupply",
      "outputs": [
        {
          "internalType": "uint256",
          "name": "",
          "type": "uint256"
        }
      ],
      "stateMutability": "view",
      "type": "function",
      "constant": true
    },
    {
      "inputs": [
        {
          "internalType": "uint256",
          "name": "newMaxPresaleMint",
          "type": "uint256"
        }
      ],
      "name": "setMaxPresaleTokens",
      "outputs": [],
      "stateMutability": "nonpayable",
      "type": "function"
    },
    {
      "inputs": [],
      "name": "togglePreSale",
      "outputs": [],
      "stateMutability": "nonpayable",
      "type": "function"
    },
    {
      "inputs": [],
      "name": "preSale",
      "outputs": [
        {
          "internalType": "bool",
          "name": "",
          "type": "bool"
        }
      ],
      "stateMutability": "view",
      "type": "function",
      "constant": true
    },
    {
      "inputs": [],
      "name": "Sale",
      "outputs": [
        {
          "internalType": "bool",
          "name": "",
          "type": "bool"
        }
      ],
      "stateMutability": "view",
      "type": "function",
      "constant": true
    },
    {
      "inputs": [],
      "name": "toggleSale",
      "outputs": [],
      "stateMutability": "nonpayable",
      "type": "function"
    },
    {
      "inputs": [
        {
          "internalType": "uint256",
          "name": "tokenId",
          "type": "uint256"
        }
      ],
      "name": "tokenURI",
      "outputs": [
        {
          "internalType": "string",
          "name": "",
          "type": "string"
        }
      ],
      "stateMutability": "view",
      "type": "function",
      "constant": true
    },
    {
      "inputs": [
        {
          "internalType": "uint256",
          "name": "amount",
          "type": "uint256"
        }
      ],
      "name": "mintItems",
      "outputs": [],
      "stateMutability": "payable",
      "type": "function",
      "payable": true
    },
    {
      "inputs": [
        {
          "internalType": "address[]",
          "name": "accounts",
          "type": "address[]"
        }
      ],
      "name": "whiteListMany",
      "outputs": [],
      "stateMutability": "nonpayable",
      "type": "function"
    },
    {
      "inputs": [
        {
          "internalType": "uint256",
          "name": "amount",
          "type": "uint256"
        }
      ],
      "name": "presaleMintItems",
      "outputs": [],
      "stateMutability": "payable",
      "type": "function",
      "payable": true
    },
    {
      "inputs": [
        {
          "internalType": "uint256",
          "name": "quantity",
          "type": "uint256"
        }
      ],
      "name": "reserve",
      "outputs": [],
      "stateMutability": "nonpayable",
      "type": "function"
    },
    {
      "inputs": [
        {
          "internalType": "address",
          "name": "payee",
          "type": "address"
        }
      ],
      "name": "withdraw",
      "outputs": [],
      "stateMutability": "payable",
      "type": "function",
      "payable": true
    },
    {
      "inputs": [
        {
          "internalType": "address",
          "name": "payee",
          "type": "address"
        },
        {
          "internalType": "uint256",
          "name": "amount",
          "type": "uint256"
        }
      ],
      "name": "withdrawAmount",
      "outputs": [],
      "stateMutability": "payable",
      "type": "function",
      "payable": true
    }
  ],
  "bytecode": "0x608060405261270f6008556000600960006101000a81548160ff0219169083151502179055506000600960016101000a81548160ff0219169083151502179055503480156200004d57600080fd5b506040518060400160405280601581526020017f4c617a7920386967687420596163687420436c756200000000000000000000008152506040518060400160405280600481526020017f4c385943000000000000000000000000000000000000000000000000000000008152508160009080519060200190620000d2929190620001e2565b508060019080519060200190620000eb929190620001e2565b5050506200010e620001026200011460201b60201c565b6200011c60201b60201c565b620002f7565b600033905090565b6000600660009054906101000a900473ffffffffffffffffffffffffffffffffffffffff16905081600660006101000a81548173ffffffffffffffffffffffffffffffffffffffff021916908373ffffffffffffffffffffffffffffffffffffffff1602179055508173ffffffffffffffffffffffffffffffffffffffff168173ffffffffffffffffffffffffffffffffffffffff167f8be0079c531659141344cd1fd0a4f28419497f9722a3daafe3b4186f6b6457e060405160405180910390a35050565b828054620001f09062000292565b90600052602060002090601f01602090048101928262000214576000855562000260565b82601f106200022f57805160ff191683800117855562000260565b8280016001018555821562000260579182015b828111156200025f57825182559160200191906001019062000242565b5b5090506200026f919062000273565b5090565b5b808211156200028e57600081600090555060010162000274565b5090565b60006002820490506001821680620002ab57607f821691505b60208210811415620002c257620002c1620002c8565b5b50919050565b7f4e487b7100000000000000000000000000000000000000000000000000000000600052602260045260246000fd5b613a0880620003076000396000f3fe6080604052600436106101e35760003560e01c806370a082311161010257806395d89b4111610095578063c87b56dd11610064578063c87b56dd1461066e578063ca3cb522146106ab578063e985e9c5146106c2578063f2fde38b146106ff576101e3565b806395d89b41146105c6578063a22cb465146105f1578063b78f9de71461061a578063b88d4fde14610645576101e3565b80637d8966e4116100d15780637d8966e414610530578063819b25ba146105475780638da5cb5b1461057057806391860f781461059b576101e3565b806370a0823114610497578063715018a6146104d457806372537189146104eb578063736fe56514610514576101e3565b806323b872dd1161017a5780635367de6a116101495780635367de6a146103ea57806355f804b3146104065780635a7adf7f1461042f5780636352211e1461045a576101e3565b806323b872dd1461035357806342842e0e1461037c57806343d67565146103a557806351cff8d9146103ce576101e3565b80630b4b9878116101b65780630b4b9878146102b657806318160ddd146102d25780631e1ac681146102fd578063235b6ea114610328576101e3565b806301ffc9a7146101e857806306fdde0314610225578063081812fc14610250578063095ea7b31461028d575b600080fd5b3480156101f457600080fd5b5061020f600480360381019061020a9190612ad6565b610728565b60405161021c91906132da565b60405180910390f35b34801561023157600080fd5b5061023a61080a565b60405161024791906132f5565b60405180910390f35b34801561025c57600080fd5b5061027760048036038101906102729190612b69565b61089c565b6040516102849190613273565b60405180910390f35b34801561029957600080fd5b506102b460048036038101906102af9190612a59565b610921565b005b6102d060048036038101906102cb9190612b69565b610a39565b005b3480156102de57600080fd5b506102e7610b68565b6040516102f49190613517565b60405180910390f35b34801561030957600080fd5b50610312610b79565b60405161031f9190613517565b60405180910390f35b34801561033457600080fd5b5061033d610b84565b60405161034a9190613517565b60405180910390f35b34801561035f57600080fd5b5061037a60048036038101906103759190612953565b610b8f565b005b34801561038857600080fd5b506103a3600480360381019061039e9190612953565b610bef565b005b3480156103b157600080fd5b506103cc60048036038101906103c79190612a95565b610c0f565b005b6103e860048036038101906103e391906128ee565b610d46565b005b61040460048036038101906103ff9190612b69565b610e03565b005b34801561041257600080fd5b5061042d60048036038101906104289190612b28565b610e9f565b005b34801561043b57600080fd5b50610444610f35565b60405161045191906132da565b60405180910390f35b34801561046657600080fd5b50610481600480360381019061047c9190612b69565b610f4c565b60405161048e9190613273565b60405180910390f35b3480156104a357600080fd5b506104be60048036038101906104b991906128ee565b610ffe565b6040516104cb9190613517565b60405180910390f35b3480156104e057600080fd5b506104e96110b6565b005b3480156104f757600080fd5b50610512600480360381019061050d9190612b69565b61113e565b005b61052e60048036038101906105299190612a59565b6111c4565b005b34801561053c57600080fd5b50610545611282565b005b34801561055357600080fd5b5061056e60048036038101906105699190612b69565b611345565b005b34801561057c57600080fd5b5061058561141a565b6040516105929190613273565b60405180910390f35b3480156105a757600080fd5b506105b0611444565b6040516105bd91906132f5565b60405180910390f35b3480156105d257600080fd5b506105db6114d2565b6040516105e891906132f5565b60405180910390f35b3480156105fd57600080fd5b5061061860048036038101906106139190612a1d565b611564565b005b34801561062657600080fd5b5061062f6116e5565b60405161063c91906132da565b60405180910390f35b34801561065157600080fd5b5061066c600480360381019061066791906129a2565b6116fc565b005b34801561067a57600080fd5b5061069560048036038101906106909190612b69565b61175e565b6040516106a291906132f5565b60405180910390f35b3480156106b757600080fd5b506106c06117cf565b005b3480156106ce57600080fd5b506106e960048036038101906106e49190612917565b611877565b6040516106f691906132da565b60405180910390f35b34801561070b57600080fd5b50610726600480360381019061072191906128ee565b61190b565b005b60007f80ac58cd000000000000000000000000000000000000000000000000000000007bffffffffffffffffffffffffffffffffffffffffffffffffffffffff1916827bffffffffffffffffffffffffffffffffffffffffffffffffffffffff191614806107f357507f5b5e139f000000000000000000000000000000000000000000000000000000007bffffffffffffffffffffffffffffffffffffffffffffffffffffffff1916827bffffffffffffffffffffffffffffffffffffffffffffffffffffffff1916145b80610803575061080282611a03565b5b9050919050565b606060008054610819906137fd565b80601f0160208091040260200160405190810160405280929190818152602001828054610845906137fd565b80156108925780601f1061086757610100808354040283529160200191610892565b820191906000526020600020905b81548152906001019060200180831161087557829003601f168201915b5050505050905090565b60006108a782611a6d565b6108e6576040517f08c379a00000000000000000000000000000000000000000000000000000000081526004016108dd90613477565b60405180910390fd5b6004600083815260200190815260200160002060009054906101000a900473ffffffffffffffffffffffffffffffffffffffff169050919050565b600061092c82610f4c565b90508073ffffffffffffffffffffffffffffffffffffffff168373ffffffffffffffffffffffffffffffffffffffff16141561099d576040517f08c379a0000000000000000000000000000000000000000000000000000000008152600401610994906134d7565b60405180910390fd5b8073ffffffffffffffffffffffffffffffffffffffff166109bc611ad9565b73ffffffffffffffffffffffffffffffffffffffff1614806109eb57506109ea816109e5611ad9565b611877565b5b610a2a576040517f08c379a0000000000000000000000000000000000000000000000000000000008152600401610a21906133d7565b60405180910390fd5b610a348383611ae1565b505050565b600b6000610a45611ad9565b73ffffffffffffffffffffffffffffffffffffffff1673ffffffffffffffffffffffffffffffffffffffff16815260200190815260200160002060009054906101000a900460ff16610acc576040517f08c379a0000000000000000000000000000000000000000000000000000000008152600401610ac390613437565b60405180910390fd5b61270f811115610adb57600080fd5b600960009054906101000a900460ff16610af457600080fd5b6000610b006007611b9a565b90506008548282610b119190613632565b1115610b1c57600080fd5b66b1a2bc2ec5000082610b2f91906136b9565b341015610b3b57600080fd5b60005b82811015610b6357610b4f33611ba8565b508080610b5b9061382f565b915050610b3e565b505050565b6000610b746007611b9a565b905090565b66b1a2bc2ec5000081565b66d529ae9e86000081565b610ba0610b9a611ad9565b82611bd5565b610bdf576040517f08c379a0000000000000000000000000000000000000000000000000000000008152600401610bd6906134f7565b60405180910390fd5b610bea838383611cb3565b505050565b610c0a838383604051806020016040528060008152506116fc565b505050565b610c17611ad9565b73ffffffffffffffffffffffffffffffffffffffff16610c3561141a565b73ffffffffffffffffffffffffffffffffffffffff1614610c8b576040517f08c379a0000000000000000000000000000000000000000000000000000000008152600401610c8290613497565b60405180910390fd5b60005b8151811015610d42576001600b6000848481518110610cd6577f4e487b7100000000000000000000000000000000000000000000000000000000600052603260045260246000fd5b602002602001015173ffffffffffffffffffffffffffffffffffffffff1673ffffffffffffffffffffffffffffffffffffffff16815260200190815260200160002060006101000a81548160ff0219169083151502179055508080610d3a9061382f565b915050610c8e565b5050565b610d4e611ad9565b73ffffffffffffffffffffffffffffffffffffffff16610d6c61141a565b73ffffffffffffffffffffffffffffffffffffffff1614610dc2576040517f08c379a0000000000000000000000000000000000000000000000000000000008152600401610db990613497565b60405180910390fd5b8073ffffffffffffffffffffffffffffffffffffffff166108fc479081150290604051600060405180830381858888f19350505050610e0057600080fd5b50565b61270f811115610e1257600080fd5b600960019054906101000a900460ff16610e2b57600080fd5b6000610e376007611b9a565b90506122b88282610e489190613632565b1115610e5357600080fd5b66d529ae9e86000082610e6691906136b9565b341015610e7257600080fd5b60005b82811015610e9a57610e8633611ba8565b508080610e929061382f565b915050610e75565b505050565b610ea7611ad9565b73ffffffffffffffffffffffffffffffffffffffff16610ec561141a565b73ffffffffffffffffffffffffffffffffffffffff1614610f1b576040517f08c379a0000000000000000000000000000000000000000000000000000000008152600401610f1290613497565b60405180910390fd5b80600a9080519060200190610f3192919061267c565b5050565b6000600960009054906101000a900460ff16905090565b6000806002600084815260200190815260200160002060009054906101000a900473ffffffffffffffffffffffffffffffffffffffff169050600073ffffffffffffffffffffffffffffffffffffffff168173ffffffffffffffffffffffffffffffffffffffff161415610ff5576040517f08c379a0000000000000000000000000000000000000000000000000000000008152600401610fec90613417565b60405180910390fd5b80915050919050565b60008073ffffffffffffffffffffffffffffffffffffffff168273ffffffffffffffffffffffffffffffffffffffff16141561106f576040517f08c379a0000000000000000000000000000000000000000000000000000000008152600401611066906133f7565b60405180910390fd5b600360008373ffffffffffffffffffffffffffffffffffffffff1673ffffffffffffffffffffffffffffffffffffffff168152602001908152602001600020549050919050565b6110be611ad9565b73ffffffffffffffffffffffffffffffffffffffff166110dc61141a565b73ffffffffffffffffffffffffffffffffffffffff1614611132576040517f08c379a000000000000000000000000000000000000000000000000000000000815260040161112990613497565b60405180910390fd5b61113c6000611f0f565b565b611146611ad9565b73ffffffffffffffffffffffffffffffffffffffff1661116461141a565b73ffffffffffffffffffffffffffffffffffffffff16146111ba576040517f08c379a00000000000000000000000000000000000000000000000000000000081526004016111b190613497565b60405180910390fd5b8060088190555050565b6111cc611ad9565b73ffffffffffffffffffffffffffffffffffffffff166111ea61141a565b73ffffffffffffffffffffffffffffffffffffffff1614611240576040517f08c379a000000000000000000000000000000000000000000000000000000000815260040161123790613497565b60405180910390fd5b8173ffffffffffffffffffffffffffffffffffffffff166108fc829081150290604051600060405180830381858888f1935050505061127e57600080fd5b5050565b61128a611ad9565b73ffffffffffffffffffffffffffffffffffffffff166112a861141a565b73ffffffffffffffffffffffffffffffffffffffff16146112fe576040517f08c379a00000000000000000000000000000000000000000000000000000000081526004016112f590613497565b60405180910390fd5b600960019054906101000a900460ff1615600960016101000a81548160ff0219169083151502179055506000600960006101000a81548160ff021916908315150217905550565b61134d611ad9565b73ffffffffffffffffffffffffffffffffffffffff1661136b61141a565b73ffffffffffffffffffffffffffffffffffffffff16146113c1576040517f08c379a00000000000000000000000000000000000000000000000000000000081526004016113b890613497565b60405180910390fd5b60006113cd6007611b9a565b90505b81811015611416576122b8811015611403576113ec6007611fd5565b611402336001836113fd9190613632565b611feb565b5b808061140e9061382f565b9150506113d0565b5050565b6000600660009054906101000a900473ffffffffffffffffffffffffffffffffffffffff16905090565b600a8054611451906137fd565b80601f016020809104026020016040519081016040528092919081815260200182805461147d906137fd565b80156114ca5780601f1061149f576101008083540402835291602001916114ca565b820191906000526020600020905b8154815290600101906020018083116114ad57829003601f168201915b505050505081565b6060600180546114e1906137fd565b80601f016020809104026020016040519081016040528092919081815260200182805461150d906137fd565b801561155a5780601f1061152f5761010080835404028352916020019161155a565b820191906000526020600020905b81548152906001019060200180831161153d57829003601f168201915b5050505050905090565b61156c611ad9565b73ffffffffffffffffffffffffffffffffffffffff168273ffffffffffffffffffffffffffffffffffffffff1614156115da576040517f08c379a00000000000000000000000000000000000000000000000000000000081526004016115d190613397565b60405180910390fd5b80600560006115e7611ad9565b73ffffffffffffffffffffffffffffffffffffffff1673ffffffffffffffffffffffffffffffffffffffff16815260200190815260200160002060008473ffffffffffffffffffffffffffffffffffffffff1673ffffffffffffffffffffffffffffffffffffffff16815260200190815260200160002060006101000a81548160ff0219169083151502179055508173ffffffffffffffffffffffffffffffffffffffff16611694611ad9565b73ffffffffffffffffffffffffffffffffffffffff167f17307eab39ab6107e8899845ad3d59bd9653f200f220920489ca2b5937696c31836040516116d991906132da565b60405180910390a35050565b6000600960019054906101000a900460ff16905090565b61170d611707611ad9565b83611bd5565b61174c576040517f08c379a0000000000000000000000000000000000000000000000000000000008152600401611743906134f7565b60405180910390fd5b61175884848484612009565b50505050565b606061176982611a6d565b61177257600080fd5b600061177c612065565b9050600081511161179c57604051806020016040528060008152506117c7565b806117a6846120f7565b6040516020016117b7929190613244565b6040516020818303038152906040525b915050919050565b6117d7611ad9565b73ffffffffffffffffffffffffffffffffffffffff166117f561141a565b73ffffffffffffffffffffffffffffffffffffffff161461184b576040517f08c379a000000000000000000000000000000000000000000000000000000000815260040161184290613497565b60405180910390fd5b600960009054906101000a900460ff1615600960006101000a81548160ff021916908315150217905550565b6000600560008473ffffffffffffffffffffffffffffffffffffffff1673ffffffffffffffffffffffffffffffffffffffff16815260200190815260200160002060008373ffffffffffffffffffffffffffffffffffffffff1673ffffffffffffffffffffffffffffffffffffffff16815260200190815260200160002060009054906101000a900460ff16905092915050565b611913611ad9565b73ffffffffffffffffffffffffffffffffffffffff1661193161141a565b73ffffffffffffffffffffffffffffffffffffffff1614611987576040517f08c379a000000000000000000000000000000000000000000000000000000000815260040161197e90613497565b60405180910390fd5b600073ffffffffffffffffffffffffffffffffffffffff168173ffffffffffffffffffffffffffffffffffffffff1614156119f7576040517f08c379a00000000000000000000000000000000000000000000000000000000081526004016119ee90613337565b60405180910390fd5b611a0081611f0f565b50565b60007f01ffc9a7000000000000000000000000000000000000000000000000000000007bffffffffffffffffffffffffffffffffffffffffffffffffffffffff1916827bffffffffffffffffffffffffffffffffffffffffffffffffffffffff1916149050919050565b60008073ffffffffffffffffffffffffffffffffffffffff166002600084815260200190815260200160002060009054906101000a900473ffffffffffffffffffffffffffffffffffffffff1673ffffffffffffffffffffffffffffffffffffffff1614159050919050565b600033905090565b816004600083815260200190815260200160002060006101000a81548173ffffffffffffffffffffffffffffffffffffffff021916908373ffffffffffffffffffffffffffffffffffffffff160217905550808273ffffffffffffffffffffffffffffffffffffffff16611b5483610f4c565b73ffffffffffffffffffffffffffffffffffffffff167f8c5be1e5ebec7d5bd14f71427d1e84f3dd0314c0f7b2291e5b200ac8c7c3b92560405160405180910390a45050565b600081600001549050919050565b6000611bb46007611fd5565b6000611bc06007611b9a565b9050611bcc83826122a4565b80915050919050565b6000611be082611a6d565b611c1f576040517f08c379a0000000000000000000000000000000000000000000000000000000008152600401611c16906133b7565b60405180910390fd5b6000611c2a83610f4c565b90508073ffffffffffffffffffffffffffffffffffffffff168473ffffffffffffffffffffffffffffffffffffffff161480611c9957508373ffffffffffffffffffffffffffffffffffffffff16611c818461089c565b73ffffffffffffffffffffffffffffffffffffffff16145b80611caa5750611ca98185611877565b5b91505092915050565b8273ffffffffffffffffffffffffffffffffffffffff16611cd382610f4c565b73ffffffffffffffffffffffffffffffffffffffff1614611d29576040517f08c379a0000000000000000000000000000000000000000000000000000000008152600401611d20906134b7565b60405180910390fd5b600073ffffffffffffffffffffffffffffffffffffffff168273ffffffffffffffffffffffffffffffffffffffff161415611d99576040517f08c379a0000000000000000000000000000000000000000000000000000000008152600401611d9090613377565b60405180910390fd5b611da4838383612472565b611daf600082611ae1565b6001600360008573ffffffffffffffffffffffffffffffffffffffff1673ffffffffffffffffffffffffffffffffffffffff1681526020019081526020016000206000828254611dff9190613713565b925050819055506001600360008473ffffffffffffffffffffffffffffffffffffffff1673ffffffffffffffffffffffffffffffffffffffff1681526020019081526020016000206000828254611e569190613632565b92505081905550816002600083815260200190815260200160002060006101000a81548173ffffffffffffffffffffffffffffffffffffffff021916908373ffffffffffffffffffffffffffffffffffffffff160217905550808273ffffffffffffffffffffffffffffffffffffffff168473ffffffffffffffffffffffffffffffffffffffff167fddf252ad1be2c89b69c2b068fc378daa952ba7f163c4a11628f55a4df523b3ef60405160405180910390a4505050565b6000600660009054906101000a900473ffffffffffffffffffffffffffffffffffffffff16905081600660006101000a81548173ffffffffffffffffffffffffffffffffffffffff021916908373ffffffffffffffffffffffffffffffffffffffff1602179055508173ffffffffffffffffffffffffffffffffffffffff168173ffffffffffffffffffffffffffffffffffffffff167f8be0079c531659141344cd1fd0a4f28419497f9722a3daafe3b4186f6b6457e060405160405180910390a35050565b6001816000016000828254019250508190555050565b612005828260405180602001604052806000815250612477565b5050565b612014848484611cb3565b612020848484846124d2565b61205f576040517f08c379a000000000000000000000000000000000000000000000000000000000815260040161205690613317565b60405180910390fd5b50505050565b6060600a8054612074906137fd565b80601f01602080910402602001604051908101604052809291908181526020018280546120a0906137fd565b80156120ed5780601f106120c2576101008083540402835291602001916120ed565b820191906000526020600020905b8154815290600101906020018083116120d057829003601f168201915b5050505050905090565b6060600082141561213f576040518060400160405280600181526020017f3000000000000000000000000000000000000000000000000000000000000000815250905061229f565b600082905060005b6000821461217157808061215a9061382f565b915050600a8261216a9190613688565b9150612147565b60008167ffffffffffffffff8111156121b3577f4e487b7100000000000000000000000000000000000000000000000000000000600052604160045260246000fd5b6040519080825280601f01601f1916602001820160405280156121e55781602001600182028036833780820191505090505b5090505b60008514612298576001826121fe9190613713565b9150600a8561220d9190613878565b60306122199190613632565b60f81b818381518110612255577f4e487b7100000000000000000000000000000000000000000000000000000000600052603260045260246000fd5b60200101907effffffffffffffffffffffffffffffffffffffffffffffffffffffffffffff1916908160001a905350600a856122919190613688565b94506121e9565b8093505050505b919050565b600073ffffffffffffffffffffffffffffffffffffffff168273ffffffffffffffffffffffffffffffffffffffff161415612314576040517f08c379a000000000000000000000000000000000000000000000000000000000815260040161230b90613457565b60405180910390fd5b61231d81611a6d565b1561235d576040517f08c379a000000000000000000000000000000000000000000000000000000000815260040161235490613357565b60405180910390fd5b61236960008383612472565b6001600360008473ffffffffffffffffffffffffffffffffffffffff1673ffffffffffffffffffffffffffffffffffffffff16815260200190815260200160002060008282546123b99190613632565b92505081905550816002600083815260200190815260200160002060006101000a81548173ffffffffffffffffffffffffffffffffffffffff021916908373ffffffffffffffffffffffffffffffffffffffff160217905550808273ffffffffffffffffffffffffffffffffffffffff16600073ffffffffffffffffffffffffffffffffffffffff167fddf252ad1be2c89b69c2b068fc378daa952ba7f163c4a11628f55a4df523b3ef60405160405180910390a45050565b505050565b61248183836122a4565b61248e60008484846124d2565b6124cd576040517f08c379a00000000000000000000000000000000000000000000000000000000081526004016124c490613317565b60405180910390fd5b505050565b60006124f38473ffffffffffffffffffffffffffffffffffffffff16612669565b1561265c578373ffffffffffffffffffffffffffffffffffffffff1663150b7a0261251c611ad9565b8786866040518563ffffffff1660e01b815260040161253e949392919061328e565b602060405180830381600087803b15801561255857600080fd5b505af192505050801561258957506040513d601f19601f820116820180604052508101906125869190612aff565b60015b61260c573d80600081146125b9576040519150601f19603f3d011682016040523d82523d6000602084013e6125be565b606091505b50600081511415612604576040517f08c379a00000000000000000000000000000000000000000000000000000000081526004016125fb90613317565b60405180910390fd5b805181602001fd5b63150b7a0260e01b7bffffffffffffffffffffffffffffffffffffffffffffffffffffffff1916817bffffffffffffffffffffffffffffffffffffffffffffffffffffffff191614915050612661565b600190505b949350505050565b600080823b905060008111915050919050565b828054612688906137fd565b90600052602060002090601f0160209004810192826126aa57600085556126f1565b82601f106126c357805160ff19168380011785556126f1565b828001600101855582156126f1579182015b828111156126f05782518255916020019190600101906126d5565b5b5090506126fe9190612702565b5090565b5b8082111561271b576000816000905550600101612703565b5090565b600061273261272d84613563565b613532565b9050808382526020820190508285602086028201111561275157600080fd5b60005b8581101561278157816127678882612807565b845260208401935060208301925050600181019050612754565b5050509392505050565b600061279e6127998461358f565b613532565b9050828152602081018484840111156127b657600080fd5b6127c18482856137bb565b509392505050565b60006127dc6127d7846135bf565b613532565b9050828152602081018484840111156127f457600080fd5b6127ff8482856137bb565b509392505050565b60008135905061281681613976565b92915050565b600082601f83011261282d57600080fd5b813561283d84826020860161271f565b91505092915050565b6000813590506128558161398d565b92915050565b60008135905061286a816139a4565b92915050565b60008151905061287f816139a4565b92915050565b600082601f83011261289657600080fd5b81356128a684826020860161278b565b91505092915050565b600082601f8301126128c057600080fd5b81356128d08482602086016127c9565b91505092915050565b6000813590506128e8816139bb565b92915050565b60006020828403121561290057600080fd5b600061290e84828501612807565b91505092915050565b6000806040838503121561292a57600080fd5b600061293885828601612807565b925050602061294985828601612807565b9150509250929050565b60008060006060848603121561296857600080fd5b600061297686828701612807565b935050602061298786828701612807565b9250506040612998868287016128d9565b9150509250925092565b600080600080608085870312156129b857600080fd5b60006129c687828801612807565b94505060206129d787828801612807565b93505060406129e8878288016128d9565b925050606085013567ffffffffffffffff811115612a0557600080fd5b612a1187828801612885565b91505092959194509250565b60008060408385031215612a3057600080fd5b6000612a3e85828601612807565b9250506020612a4f85828601612846565b9150509250929050565b60008060408385031215612a6c57600080fd5b6000612a7a85828601612807565b9250506020612a8b858286016128d9565b9150509250929050565b600060208284031215612aa757600080fd5b600082013567ffffffffffffffff811115612ac157600080fd5b612acd8482850161281c565b91505092915050565b600060208284031215612ae857600080fd5b6000612af68482850161285b565b91505092915050565b600060208284031215612b1157600080fd5b6000612b1f84828501612870565b91505092915050565b600060208284031215612b3a57600080fd5b600082013567ffffffffffffffff811115612b5457600080fd5b612b60848285016128af565b91505092915050565b600060208284031215612b7b57600080fd5b6000612b89848285016128d9565b91505092915050565b612b9b81613747565b82525050565b612baa81613759565b82525050565b6000612bbb826135ef565b612bc58185613605565b9350612bd58185602086016137ca565b612bde81613965565b840191505092915050565b6000612bf4826135fa565b612bfe8185613616565b9350612c0e8185602086016137ca565b612c1781613965565b840191505092915050565b6000612c2d826135fa565b612c378185613627565b9350612c478185602086016137ca565b80840191505092915050565b6000612c60603283613616565b91507f4552433732313a207472616e7366657220746f206e6f6e20455243373231526560008301527f63656976657220696d706c656d656e74657200000000000000000000000000006020830152604082019050919050565b6000612cc6602683613616565b91507f4f776e61626c653a206e6577206f776e657220697320746865207a65726f206160008301527f64647265737300000000000000000000000000000000000000000000000000006020830152604082019050919050565b6000612d2c601c83613616565b91507f4552433732313a20746f6b656e20616c7265616479206d696e746564000000006000830152602082019050919050565b6000612d6c602483613616565b91507f4552433732313a207472616e7366657220746f20746865207a65726f2061646460008301527f72657373000000000000000000000000000000000000000000000000000000006020830152604082019050919050565b6000612dd2601983613616565b91507f4552433732313a20617070726f766520746f2063616c6c6572000000000000006000830152602082019050919050565b6000612e12602c83613616565b91507f4552433732313a206f70657261746f7220717565727920666f72206e6f6e657860008301527f697374656e7420746f6b656e00000000000000000000000000000000000000006020830152604082019050919050565b6000612e78603883613616565b91507f4552433732313a20617070726f76652063616c6c6572206973206e6f74206f7760008301527f6e6572206e6f7220617070726f76656420666f7220616c6c00000000000000006020830152604082019050919050565b6000612ede602a83613616565b91507f4552433732313a2062616c616e636520717565727920666f7220746865207a6560008301527f726f2061646472657373000000000000000000000000000000000000000000006020830152604082019050919050565b6000612f44602983613616565b91507f4552433732313a206f776e657220717565727920666f72206e6f6e657869737460008301527f656e7420746f6b656e00000000000000000000000000000000000000000000006020830152604082019050919050565b6000612faa601983613616565b91507f4d696e743a20556e617574686f72697a656420416363657373000000000000006000830152602082019050919050565b6000612fea602083613616565b91507f4552433732313a206d696e7420746f20746865207a65726f20616464726573736000830152602082019050919050565b600061302a602c83613616565b91507f4552433732313a20617070726f76656420717565727920666f72206e6f6e657860008301527f697374656e7420746f6b656e00000000000000000000000000000000000000006020830152604082019050919050565b6000613090600583613627565b91507f2e6a736f6e0000000000000000000000000000000000000000000000000000006000830152600582019050919050565b60006130d0602083613616565b91507f4f776e61626c653a2063616c6c6572206973206e6f7420746865206f776e65726000830152602082019050919050565b6000613110602983613616565b91507f4552433732313a207472616e73666572206f6620746f6b656e2074686174206960008301527f73206e6f74206f776e00000000000000000000000000000000000000000000006020830152604082019050919050565b6000613176602183613616565b91507f4552433732313a20617070726f76616c20746f2063757272656e74206f776e6560008301527f72000000000000000000000000000000000000000000000000000000000000006020830152604082019050919050565b60006131dc603183613616565b91507f4552433732313a207472616e736665722063616c6c6572206973206e6f74206f60008301527f776e6572206e6f7220617070726f7665640000000000000000000000000000006020830152604082019050919050565b61323e816137b1565b82525050565b60006132508285612c22565b915061325c8284612c22565b915061326782613083565b91508190509392505050565b60006020820190506132886000830184612b92565b92915050565b60006080820190506132a36000830187612b92565b6132b06020830186612b92565b6132bd6040830185613235565b81810360608301526132cf8184612bb0565b905095945050505050565b60006020820190506132ef6000830184612ba1565b92915050565b6000602082019050818103600083015261330f8184612be9565b905092915050565b6000602082019050818103600083015261333081612c53565b9050919050565b6000602082019050818103600083015261335081612cb9565b9050919050565b6000602082019050818103600083015261337081612d1f565b9050919050565b6000602082019050818103600083015261339081612d5f565b9050919050565b600060208201905081810360008301526133b081612dc5565b9050919050565b600060208201905081810360008301526133d081612e05565b9050919050565b600060208201905081810360008301526133f081612e6b565b9050919050565b6000602082019050818103600083015261341081612ed1565b9050919050565b6000602082019050818103600083015261343081612f37565b9050919050565b6000602082019050818103600083015261345081612f9d565b9050919050565b6000602082019050818103600083015261347081612fdd565b9050919050565b600060208201905081810360008301526134908161301d565b9050919050565b600060208201905081810360008301526134b0816130c3565b9050919050565b600060208201905081810360008301526134d081613103565b9050919050565b600060208201905081810360008301526134f081613169565b9050919050565b60006020820190508181036000830152613510816131cf565b9050919050565b600060208201905061352c6000830184613235565b92915050565b6000604051905081810181811067ffffffffffffffff8211171561355957613558613936565b5b8060405250919050565b600067ffffffffffffffff82111561357e5761357d613936565b5b602082029050602081019050919050565b600067ffffffffffffffff8211156135aa576135a9613936565b5b601f19601f8301169050602081019050919050565b600067ffffffffffffffff8211156135da576135d9613936565b5b601f19601f8301169050602081019050919050565b600081519050919050565b600081519050919050565b600082825260208201905092915050565b600082825260208201905092915050565b600081905092915050565b600061363d826137b1565b9150613648836137b1565b9250827fffffffffffffffffffffffffffffffffffffffffffffffffffffffffffffffff0382111561367d5761367c6138a9565b5b828201905092915050565b6000613693826137b1565b915061369e836137b1565b9250826136ae576136ad6138d8565b5b828204905092915050565b60006136c4826137b1565b91506136cf836137b1565b9250817fffffffffffffffffffffffffffffffffffffffffffffffffffffffffffffffff0483118215151615613708576137076138a9565b5b828202905092915050565b600061371e826137b1565b9150613729836137b1565b92508282101561373c5761373b6138a9565b5b828203905092915050565b600061375282613791565b9050919050565b60008115159050919050565b60007fffffffff0000000000000000000000000000000000000000000000000000000082169050919050565b600073ffffffffffffffffffffffffffffffffffffffff82169050919050565b6000819050919050565b82818337600083830152505050565b60005b838110156137e85780820151818401526020810190506137cd565b838111156137f7576000848401525b50505050565b6000600282049050600182168061381557607f821691505b6020821081141561382957613828613907565b5b50919050565b600061383a826137b1565b91507fffffffffffffffffffffffffffffffffffffffffffffffffffffffffffffffff82141561386d5761386c6138a9565b5b600182019050919050565b6000613883826137b1565b915061388e836137b1565b92508261389e5761389d6138d8565b5b828206905092915050565b7f4e487b7100000000000000000000000000000000000000000000000000000000600052601160045260246000fd5b7f4e487b7100000000000000000000000000000000000000000000000000000000600052601260045260246000fd5b7f4e487b7100000000000000000000000000000000000000000000000000000000600052602260045260246000fd5b7f4e487b7100000000000000000000000000000000000000000000000000000000600052604160045260246000fd5b6000601f19601f8301169050919050565b61397f81613747565b811461398a57600080fd5b50565b61399681613759565b81146139a157600080fd5b50565b6139ad81613765565b81146139b857600080fd5b50565b6139c4816137b1565b81146139cf57600080fd5b5056fea26469706673582212206b31054b8c2b4b0f16ded539cc00441a8b516f4816ff17fb80d7a14f51da818264736f6c63430008000033",
  "immutableReferences": {},
  "source": "pragma solidity ^0.8.0;\n//SPDX-License-Identifier: MIT\n\nimport \"@openzeppelin/contracts/token/ERC721/ERC721.sol\";\nimport \"@openzeppelin/contracts/utils/Counters.sol\";\nimport \"@openzeppelin/contracts/access/Ownable.sol\";\nimport \"@openzeppelin/contracts/utils/Strings.sol\";\n\ncontract Lazy8YachtClub is ERC721, Ownable {\n    using Counters for Counters.Counter;\n    Counters.Counter private _tokenIds;\n\n    uint256 private constant _maxTokens = 8888;\n    uint256 private _maxPresaleTokens = 9999;\n    uint256 private constant _maxMint = 9999;\n    uint256 public constant _premintPrice = 50000000000000000; //0.05 ETH\n    uint256 public constant _price = 60000000000000000; // 0.06 ETH\n    bool private _presaleActive = false;\n    bool private _saleActive = false;\n\n    string public _prefixURI;\n\n    mapping(address => bool) private _whitelist;\n\n    constructor() ERC721(\"Lazy 8ight Yacht Club\", \"L8YC\") {}\n\n    function _baseURI() internal view override returns (string memory) {\n        return _prefixURI;\n    }\n\n    function setBaseURI(string memory _uri) public onlyOwner {\n        _prefixURI = _uri;\n    }\n\n    function totalSupply() public view returns (uint256) {\n        return _tokenIds.current();\n    }\n\n    function setMaxPresaleTokens(uint256 newMaxPresaleMint) public onlyOwner {\n        _maxPresaleTokens = newMaxPresaleMint;\n    }\n\n    function togglePreSale() public onlyOwner {\n        _presaleActive = !_presaleActive;\n    }\n\n    function preSale() public view returns (bool) {\n        return _presaleActive;\n    }\n\n    function Sale() public view returns (bool) {\n        return _saleActive;\n    }\n\n    function toggleSale() public onlyOwner {\n        _saleActive = !_saleActive;\n        _presaleActive = false;\n    }\n\n    function tokenURI(uint256 tokenId)\n        public\n        view\n        virtual\n        override\n        returns (string memory)\n    {\n        require(_exists(tokenId));\n\n        string memory baseURI = _baseURI();\n        return\n            bytes(baseURI).length > 0\n                ? string(\n                    abi.encodePacked(\n                        baseURI,\n                        Strings.toString(tokenId),\n                        \".json\"\n                    )\n                )\n                : \"\";\n    }\n\n    function mintItems(uint256 amount) public payable {\n        require(amount <= _maxMint);\n        require(_saleActive);\n\n        uint256 totalMinted = _tokenIds.current();\n        require(totalMinted + amount <= _maxTokens);\n\n        require(msg.value >= amount * _price);\n\n        for (uint256 i = 0; i < amount; i++) {\n            _mintItem(msg.sender);\n        }\n    }\n\n    function whiteListMany(address[] memory accounts) external onlyOwner {\n        for (uint256 i; i < accounts.length; i++) {\n            _whitelist[accounts[i]] = true;\n        }\n    }\n\n    function presaleMintItems(uint256 amount) public payable {\n        require(_whitelist[_msgSender()], \"Mint: Unauthorized Access\");\n        require(amount <= _maxMint);\n        require(_presaleActive);\n\n        uint256 totalMinted = _tokenIds.current();\n        require(totalMinted + amount <= _maxPresaleTokens);\n\n        require(msg.value >= amount * _premintPrice);\n\n        for (uint256 i = 0; i < amount; i++) {\n            _mintItem(msg.sender);\n        }\n    }\n\n    function _mintItem(address to) internal returns (uint256) {\n        _tokenIds.increment();\n\n        uint256 id = _tokenIds.current();\n        _mint(to, id);\n\n        return id;\n    }\n\n    function reserve(uint256 quantity) public onlyOwner {\n        for(uint i = _tokenIds.current(); i < quantity; i++) {\n            if (i < _maxTokens) {\n                _tokenIds.increment();\n                _safeMint(msg.sender, i + 1);\n            }\n        }\n    }\n\n    function withdraw(address payee) public payable onlyOwner {\n        require(payable(payee).send(address(this).balance));\n    }\n\n    function withdrawAmount(address payee, uint256 amount) public payable onlyOwner {\n        require(payable(payee).send(amount));\n    }\n}\n",
  "sourcePath": "/Users/teancum/yachtNFT/contracts/Lazy8YachtClub.sol",
  "compiler": {
    "name": "solc",
    "version": "0.8.0+commit.c7dfd78e.Emscripten.clang"
  },
  "schemaVersion": "3.4.3",
  "updatedAt": "2022-02-25T22:37:17.202Z",
  "networkType": "ethereum",
  "devdoc": {
    "kind": "dev",
    "methods": {
      "approve(address,uint256)": {
        "details": "See {IERC721-approve}."
      },
      "balanceOf(address)": {
        "details": "See {IERC721-balanceOf}."
      },
      "getApproved(uint256)": {
        "details": "See {IERC721-getApproved}."
      },
      "isApprovedForAll(address,address)": {
        "details": "See {IERC721-isApprovedForAll}."
      },
      "name()": {
        "details": "See {IERC721Metadata-name}."
      },
      "owner()": {
        "details": "Returns the address of the current owner."
      },
      "ownerOf(uint256)": {
        "details": "See {IERC721-ownerOf}."
      },
      "renounceOwnership()": {
        "details": "Leaves the contract without owner. It will not be possible to call `onlyOwner` functions anymore. Can only be called by the current owner. NOTE: Renouncing ownership will leave the contract without an owner, thereby removing any functionality that is only available to the owner."
      },
      "safeTransferFrom(address,address,uint256)": {
        "details": "See {IERC721-safeTransferFrom}."
      },
      "safeTransferFrom(address,address,uint256,bytes)": {
        "details": "See {IERC721-safeTransferFrom}."
      },
      "setApprovalForAll(address,bool)": {
        "details": "See {IERC721-setApprovalForAll}."
      },
      "supportsInterface(bytes4)": {
        "details": "See {IERC165-supportsInterface}."
      },
      "symbol()": {
        "details": "See {IERC721Metadata-symbol}."
      },
      "tokenURI(uint256)": {
        "details": "See {IERC721Metadata-tokenURI}."
      },
      "transferFrom(address,address,uint256)": {
        "details": "See {IERC721-transferFrom}."
      },
      "transferOwnership(address)": {
        "details": "Transfers ownership of the contract to a new account (`newOwner`). Can only be called by the current owner."
      }
    },
    "version": 1
  },
  "userdoc": {
    "kind": "user",
    "methods": {},
    "version": 1
  }
}